{
  "contractName": "HorseCoinCrowdsale",
  "abi": [
    {
      "constant": true,
      "inputs": [],
      "name": "rate",
      "outputs": [
        {
          "name": "",
          "type": "uint256"
        }
      ],
      "payable": false,
      "stateMutability": "view",
      "type": "function"
    },
    {
      "constant": true,
      "inputs": [],
      "name": "endTime",
      "outputs": [
        {
          "name": "",
          "type": "uint256"
        }
      ],
      "payable": false,
      "stateMutability": "view",
      "type": "function"
    },
    {
      "constant": true,
      "inputs": [],
      "name": "cap",
      "outputs": [
        {
          "name": "",
          "type": "uint256"
        }
      ],
      "payable": false,
      "stateMutability": "view",
      "type": "function"
    },
    {
      "constant": true,
      "inputs": [],
      "name": "goal",
      "outputs": [
        {
          "name": "",
          "type": "uint256"
        }
      ],
      "payable": false,
      "stateMutability": "view",
      "type": "function"
    },
    {
      "constant": true,
      "inputs": [],
      "name": "weiRaised",
      "outputs": [
        {
          "name": "",
          "type": "uint256"
        }
      ],
      "payable": false,
      "stateMutability": "view",
      "type": "function"
    },
    {
      "constant": false,
      "inputs": [],
      "name": "finalize",
      "outputs": [],
      "payable": false,
      "stateMutability": "nonpayable",
      "type": "function"
    },
    {
      "constant": true,
      "inputs": [],
      "name": "wallet",
      "outputs": [
        {
          "name": "",
          "type": "address"
        }
      ],
      "payable": false,
      "stateMutability": "view",
      "type": "function"
    },
    {
      "constant": true,
      "inputs": [],
      "name": "startTime",
      "outputs": [
        {
          "name": "",
          "type": "uint256"
        }
      ],
      "payable": false,
      "stateMutability": "view",
      "type": "function"
    },
    {
      "constant": true,
      "inputs": [],
      "name": "goalReached",
      "outputs": [
        {
          "name": "",
          "type": "bool"
        }
      ],
      "payable": false,
      "stateMutability": "view",
      "type": "function"
    },
    {
      "constant": true,
      "inputs": [],
      "name": "isFinalized",
      "outputs": [
        {
          "name": "",
          "type": "bool"
        }
      ],
      "payable": false,
      "stateMutability": "view",
      "type": "function"
    },
    {
      "constant": true,
      "inputs": [],
      "name": "owner",
      "outputs": [
        {
          "name": "",
          "type": "address"
        }
      ],
      "payable": false,
      "stateMutability": "view",
      "type": "function"
    },
    {
      "constant": false,
      "inputs": [
        {
          "name": "value",
          "type": "uint256"
        }
      ],
      "name": "setCrowdsaleStage",
      "outputs": [],
      "payable": false,
      "stateMutability": "nonpayable",
      "type": "function"
    },
    {
      "constant": false,
      "inputs": [],
      "name": "claimRefund",
      "outputs": [],
      "payable": false,
      "stateMutability": "nonpayable",
      "type": "function"
    },
    {
      "constant": true,
      "inputs": [],
      "name": "stage",
      "outputs": [
        {
          "name": "",
          "type": "uint8"
        }
      ],
      "payable": false,
      "stateMutability": "view",
      "type": "function"
    },
    {
      "constant": true,
      "inputs": [],
      "name": "totalWeiInPreICO",
      "outputs": [
        {
          "name": "",
          "type": "uint256"
        }
      ],
      "payable": false,
      "stateMutability": "view",
      "type": "function"
    },
    {
      "constant": false,
      "inputs": [
        {
          "name": "beneficiary",
          "type": "address"
        }
      ],
      "name": "buyTokens",
      "outputs": [],
      "payable": true,
      "stateMutability": "payable",
      "type": "function"
    },
    {
      "constant": true,
      "inputs": [],
      "name": "hasEnded",
      "outputs": [
        {
          "name": "",
          "type": "bool"
        }
      ],
      "payable": false,
      "stateMutability": "view",
      "type": "function"
    },
    {
      "constant": false,
      "inputs": [
        {
          "name": "newOwner",
          "type": "address"
        }
      ],
      "name": "transferOwnership",
      "outputs": [],
      "payable": false,
      "stateMutability": "nonpayable",
      "type": "function"
    },
    {
      "constant": true,
      "inputs": [],
      "name": "vault",
      "outputs": [
        {
          "name": "",
          "type": "address"
        }
      ],
      "payable": false,
      "stateMutability": "view",
      "type": "function"
    },
    {
      "constant": true,
      "inputs": [],
      "name": "token",
      "outputs": [
        {
          "name": "",
          "type": "address"
        }
      ],
      "payable": false,
      "stateMutability": "view",
      "type": "function"
    },
    {
      "inputs": [
        {
          "name": "_startTime",
          "type": "uint256"
        },
        {
          "name": "_endTime",
          "type": "uint256"
        },
        {
          "name": "_rate",
          "type": "uint256"
        },
        {
          "name": "_cap",
          "type": "uint256"
        },
        {
          "name": "_goal",
          "type": "uint256"
        },
        {
          "name": "_wallet",
          "type": "address"
        }
      ],
      "payable": false,
      "stateMutability": "nonpayable",
      "type": "constructor"
    },
    {
      "payable": true,
      "stateMutability": "payable",
      "type": "fallback"
    },
    {
      "anonymous": false,
      "inputs": [
        {
          "indexed": false,
          "name": "text",
          "type": "string"
        }
      ],
      "name": "EthTransferred",
      "type": "event"
    },
    {
      "anonymous": false,
      "inputs": [
        {
          "indexed": false,
          "name": "text",
          "type": "string"
        }
      ],
      "name": "EthRefunded",
      "type": "event"
    },
    {
      "anonymous": false,
      "inputs": [],
      "name": "Finalized",
      "type": "event"
    },
    {
      "anonymous": false,
      "inputs": [
        {
          "indexed": true,
          "name": "previousOwner",
          "type": "address"
        },
        {
          "indexed": true,
          "name": "newOwner",
          "type": "address"
        }
      ],
      "name": "OwnershipTransferred",
      "type": "event"
    },
    {
      "anonymous": false,
      "inputs": [
        {
          "indexed": true,
          "name": "purchaser",
          "type": "address"
        },
        {
          "indexed": true,
          "name": "beneficiary",
          "type": "address"
        },
        {
          "indexed": false,
          "name": "value",
          "type": "uint256"
        },
        {
          "indexed": false,
          "name": "amount",
          "type": "uint256"
        }
      ],
      "name": "TokenPurchase",
      "type": "event"
    }
  ],
  "bytecode": "0x60606040526007805460a060020a60ff0219908116909155600980549091169055600a8054600160a060020a03191673b8d2adb361e3c631951b636dd6f68c7182d2e6c6179055341561005157600080fd5b60405160c08062002f31833981016040528080519190602001805191906020018051919060200180519190602001805191906020018051915082905083878787854284101561009f57600080fd5b838310156100ac57600080fd5b600082116100b957600080fd5b600160a060020a03811615156100ce57600080fd5b6100e3640100000000610b7d6101cb82021704565b60008054600160a060020a0319908116600160a060020a0393841617825560019690965560029490945560049290925560038054909416911617909155811161012b57600080fd5b60065560078054600160a060020a03191633600160a060020a03161790556000811161015657600080fd5b600354600160a060020a031661016a6101f0565b600160a060020a039091168152602001604051809103906000f080151561019057600080fd5b60098054600160a060020a031916600160a060020a0392909216919091179055600855828211156101c057600080fd5b505050505050610212565b60006101d5610201565b604051809103906000f08015156101eb57600080fd5b905090565b60405161060c8062001b9283390190565b604051610d93806200219e83390190565b61197080620002226000396000f3006060604052600436106200010d5763ffffffff60e060020a6000350416632c4e722e81146200011a5780633197cbb61462000142578063355274ea146200015857806340193883146200016e5780634042b66f14620001845780634bb278f3146200019a578063521eb27314620001b057806378e9792514620001e25780637d3d652214620001f85780638d4e408314620002225780638da5cb5b1462000238578063a997f82f146200024e578063b5545a3c1462000267578063c040e6b8146200027d578063c8b6cb3814620002b8578063ec8ac4d814620002ce578063ecb70fb714620002e4578063f2fde38b14620002fa578063fbfa77cf146200031c578063fc0c546a1462000332575b620001183362000348565b005b34156200012657600080fd5b620001306200047d565b60405190815260200160405180910390f35b34156200014e57600080fd5b6200013062000483565b34156200016457600080fd5b6200013062000489565b34156200017a57600080fd5b620001306200048f565b34156200019057600080fd5b6200013062000495565b3415620001a657600080fd5b620001186200049b565b3415620001bc57600080fd5b620001c662000541565b604051600160a060020a03909116815260200160405180910390f35b3415620001ee57600080fd5b6200013062000550565b34156200020457600080fd5b6200020e62000556565b604051901515815260200160405180910390f35b34156200022e57600080fd5b6200020e62000561565b34156200024457600080fd5b620001c662000571565b34156200025a57600080fd5b6200011860043562000580565b34156200027357600080fd5b620001186200065a565b34156200028957600080fd5b62000293620006eb565b60405180826004811115620002a457fe5b60ff16815260200191505060405180910390f35b3415620002c457600080fd5b62000130620006fb565b62000118600160a060020a036004351662000348565b3415620002f057600080fd5b6200020e62000701565b34156200030657600080fd5b62000118600160a060020a036004351662000712565b34156200032857600080fd5b620001c6620007af565b34156200033e57600080fd5b620001c6620007be565b600080600160a060020a03831615156200036157600080fd5b6200036b620007cd565b15156200037757600080fd5b3491506200038582620007d9565b6005549091506200039d908363ffffffff620007ef16565b60055560008054600160a060020a0316906340c10f1990859084906040516020015260405160e060020a63ffffffff8516028152600160a060020a0390921660048301526024820152604401602060405180830381600087803b15156200040357600080fd5b6102c65a03f115156200041557600080fd5b505050604051805190505082600160a060020a031633600160a060020a03167f623b3804fa71d67900d064613da8f94b9617215ee90799290593e1745087ad18848460405191825260208201526040908101905180910390a3620004786200080a565b505050565b60045481565b60025481565b60065481565b60085481565b60055481565b60075433600160a060020a03908116911614620004b757600080fd5b60075460a060020a900460ff1615620004cf57600080fd5b620004d962000701565b1515620004e557600080fd5b620004ef62000960565b7f6823b073d48d6e3a7d385eeb601452d680e74bb46afe3255a7d778f3a9b1768160405160405180910390a16007805474ff0000000000000000000000000000000000000000191660a060020a179055565b600354600160a060020a031681565b60015481565b600854600554101590565b60075460a060020a900460ff1681565b600754600160a060020a031681565b60075460009033600160a060020a039081169116146200059f57600080fd5b811515620005b057506000620005be565b8160011415620005be575060015b6009805482919074ff0000000000000000000000000000000000000000191660a060020a836004811115620005ef57fe5b0217905550600060095460a060020a900460ff1660048111156200060f57fe5b141562000628576200062260026200096a565b62000656565b600160095460a060020a900460ff1660048111156200064357fe5b141562000656576200065660016200096a565b5050565b60075460a060020a900460ff1615156200067357600080fd5b6200067d62000556565b156200068857600080fd5b600954600160a060020a031663fa89401a3360405160e060020a63ffffffff8416028152600160a060020a039091166004820152602401600060405180830381600087803b1515620006d957600080fd5b6102c65a03f115156200047857600080fd5b60095460a060020a900460ff1681565b600b5481565b60006200070d6200096f565b905090565b60075433600160a060020a039081169116146200072e57600080fd5b600160a060020a03811615156200074457600080fd5b600754600160a060020a0380831691167f8be0079c531659141344cd1fd0a4f28419497f9722a3daafe3b4186f6b6457e060405160405180910390a36007805473ffffffffffffffffffffffffffffffffffffffff1916600160a060020a0392909216919091179055565b600954600160a060020a031681565b600054600160a060020a031681565b60006200070d62000993565b6000620007e982600602620009c7565b92915050565b600082820183811015620007ff57fe5b8091505b5092915050565b600060095460a060020a900460ff1660048111156200082557fe5b1415620008cc57600a54600160a060020a03163480156108fc0290604051600060405180830381858888f1935050505015156200086157600080fd5b7f47af8c4076c54a76f613f82e4296a2c5e2167698d368157a82e62398393e345e6040516020808252601a908201527f666f7277617264696e672066756e647320746f2077616c6c65740000000000006040808301919091526060909101905180910390a16200095e565b600160095460a060020a900460ff166004811115620008e757fe5b14156200095e57620008f8620009e0565b7f47af8c4076c54a76f613f82e4296a2c5e2167698d368157a82e62398393e345e60405160208082526019908201527f666f7277617264696e672066756e647320746f207661756c74000000000000006040808301919091526060909101905180910390a15b565b6200095e62000a49565b600455565b60065460055460009190101580806200098d57506200098d62000b14565b91505090565b600080600654620009b034600554620007ef90919063ffffffff16565b111590508080156200098d57506200098d62000b1c565b6000620007e96004548362000b4e90919063ffffffff16565b600954600160a060020a031663f340fa01343360405160e060020a63ffffffff8516028152600160a060020a0390911660048201526024016000604051808303818588803b151562000a3157600080fd5b6125ee5a03f1151562000a4357600080fd5b50505050565b62000a5362000556565b1562000ab457600954600160a060020a03166343d726d66040518163ffffffff1660e060020a028152600401600060405180830381600087803b151562000a9957600080fd5b6102c65a03f1151562000aab57600080fd5b50505062000b0a565b600954600160a060020a0316638c52dc416040518163ffffffff1660e060020a028152600401600060405180830381600087803b151562000af457600080fd5b6102c65a03f1151562000b0657600080fd5b5050505b6200095e6200095e565b600254421190565b6000806000600154421015801562000b3657506002544211155b91505034151581801562000b475750805b9250505090565b60008083151562000b63576000915062000803565b5082820282848281151562000b7457fe5b0414620007ff57fe5b600062000b8962000ba0565b604051809103906000f08015156200070d57600080fd5b604051610d938062000bb2833901905600606060409081526003805460a060020a60ff02191690558051908101604052600981527f484f525345434f494e00000000000000000000000000000000000000000000006020820152600490805161005b9291602001906100d3565b5060408051908101604052600381527f4852430000000000000000000000000000000000000000000000000000000000602082015260059080516100a39291602001906100d3565b506006805460ff1916601217905560038054600160a060020a033316600160a060020a031990911617905561016e565b828054600181600116156101000203166002900490600052602060002090601f016020900481019282601f1061011457805160ff1916838001178555610141565b82800160010185558215610141579182015b82811115610141578251825591602001919060010190610126565b5061014d929150610151565b5090565b61016b91905b8082111561014d5760008155600101610157565b90565b610c168061017d6000396000f3006060604052600436106100e55763ffffffff7c010000000000000000000000000000000000000000000000000000000060003504166305d2035b81146100ea57806306fdde0314610111578063095ea7b31461019b57806318160ddd146101bd57806323b872dd146101e2578063313ce5671461020a57806340c10f1914610233578063661884631461025557806370a08231146102775780637d64bcb4146102965780638da5cb5b146102a957806395d89b41146102d8578063a9059cbb146102eb578063d73dd6231461030d578063dd62ed3e1461032f578063f2fde38b14610354575b600080fd5b34156100f557600080fd5b6100fd610375565b604051901515815260200160405180910390f35b341561011c57600080fd5b610124610385565b60405160208082528190810183818151815260200191508051906020019080838360005b83811015610160578082015183820152602001610148565b50505050905090810190601f16801561018d5780820380516001836020036101000a031916815260200191505b509250505060405180910390f35b34156101a657600080fd5b6100fd600160a060020a0360043516602435610423565b34156101c857600080fd5b6101d061048f565b60405190815260200160405180910390f35b34156101ed57600080fd5b6100fd600160a060020a0360043581169060243516604435610495565b341561021557600080fd5b61021d610615565b60405160ff909116815260200160405180910390f35b341561023e57600080fd5b6100fd600160a060020a036004351660243561061e565b341561026057600080fd5b6100fd600160a060020a036004351660243561072c565b341561028257600080fd5b6101d0600160a060020a0360043516610826565b34156102a157600080fd5b6100fd610841565b34156102b457600080fd5b6102bc6108cc565b604051600160a060020a03909116815260200160405180910390f35b34156102e357600080fd5b6101246108db565b34156102f657600080fd5b6100fd600160a060020a0360043516602435610946565b341561031857600080fd5b6100fd600160a060020a0360043516602435610a58565b341561033a57600080fd5b6101d0600160a060020a0360043581169060243516610afc565b341561035f57600080fd5b610373600160a060020a0360043516610b27565b005b60035460a060020a900460ff1681565b60048054600181600116156101000203166002900480601f01602080910402602001604051908101604052809291908181526020018280546001816001161561010002031660029004801561041b5780601f106103f05761010080835404028352916020019161041b565b820191906000526020600020905b8154815290600101906020018083116103fe57829003601f168201915b505050505081565b600160a060020a03338116600081815260026020908152604080832094871680845294909152808220859055909291907f8c5be1e5ebec7d5bd14f71427d1e84f3dd0314c0f7b2291e5b200ac8c7c3b9259085905190815260200160405180910390a350600192915050565b60015490565b6000600160a060020a03831615156104ac57600080fd5b600160a060020a0384166000908152602081905260409020548211156104d157600080fd5b600160a060020a038085166000908152600260209081526040808320339094168352929052205482111561050457600080fd5b600160a060020a03841660009081526020819052604090205461052d908363ffffffff610bc216565b600160a060020a038086166000908152602081905260408082209390935590851681522054610562908363ffffffff610bd416565b600160a060020a03808516600090815260208181526040808320949094558783168252600281528382203390931682529190915220546105a8908363ffffffff610bc216565b600160a060020a03808616600081815260026020908152604080832033861684529091529081902093909355908516917fddf252ad1be2c89b69c2b068fc378daa952ba7f163c4a11628f55a4df523b3ef9085905190815260200160405180910390a35060019392505050565b60065460ff1681565b60035460009033600160a060020a0390811691161461063c57600080fd5b60035460a060020a900460ff161561065357600080fd5b600154610666908363ffffffff610bd416565b600155600160a060020a038316600090815260208190526040902054610692908363ffffffff610bd416565b600160a060020a0384166000818152602081905260409081902092909255907f0f6798a560793a54c3bcfe86a93cde1e73087d944c0ea20544137d41213968859084905190815260200160405180910390a2600160a060020a03831660007fddf252ad1be2c89b69c2b068fc378daa952ba7f163c4a11628f55a4df523b3ef8460405190815260200160405180910390a350600192915050565b600160a060020a0333811660009081526002602090815260408083209386168352929052908120548083111561078957600160a060020a0333811660009081526002602090815260408083209388168352929052908120556107c0565b610799818463ffffffff610bc216565b600160a060020a033381166000908152600260209081526040808320938916835292905220555b600160a060020a0333811660008181526002602090815260408083209489168084529490915290819020547f8c5be1e5ebec7d5bd14f71427d1e84f3dd0314c0f7b2291e5b200ac8c7c3b925915190815260200160405180910390a35060019392505050565b600160a060020a031660009081526020819052604090205490565b60035460009033600160a060020a0390811691161461085f57600080fd5b60035460a060020a900460ff161561087657600080fd5b6003805474ff0000000000000000000000000000000000000000191660a060020a1790557fae5184fba832cb2b1f702aca6117b8d265eaf03ad33eb133f19dde0f5920fa0860405160405180910390a150600190565b600354600160a060020a031681565b60058054600181600116156101000203166002900480601f01602080910402602001604051908101604052809291908181526020018280546001816001161561010002031660029004801561041b5780601f106103f05761010080835404028352916020019161041b565b6000600160a060020a038316151561095d57600080fd5b600160a060020a03331660009081526020819052604090205482111561098257600080fd5b600160a060020a0333166000908152602081905260409020546109ab908363ffffffff610bc216565b600160a060020a0333811660009081526020819052604080822093909355908516815220546109e0908363ffffffff610bd416565b60008085600160a060020a0316600160a060020a031681526020019081526020016000208190555082600160a060020a031633600160a060020a03167fddf252ad1be2c89b69c2b068fc378daa952ba7f163c4a11628f55a4df523b3ef8460405190815260200160405180910390a350600192915050565b600160a060020a033381166000908152600260209081526040808320938616835292905290812054610a90908363ffffffff610bd416565b600160a060020a0333811660008181526002602090815260408083209489168084529490915290819020849055919290917f8c5be1e5ebec7d5bd14f71427d1e84f3dd0314c0f7b2291e5b200ac8c7c3b92591905190815260200160405180910390a350600192915050565b600160a060020a03918216600090815260026020908152604080832093909416825291909152205490565b60035433600160a060020a03908116911614610b4257600080fd5b600160a060020a0381161515610b5757600080fd5b600354600160a060020a0380831691167f8be0079c531659141344cd1fd0a4f28419497f9722a3daafe3b4186f6b6457e060405160405180910390a36003805473ffffffffffffffffffffffffffffffffffffffff1916600160a060020a0392909216919091179055565b600082821115610bce57fe5b50900390565b600082820183811015610be357fe5b93925050505600a165627a7a72305820170c2c3499dedfe13f7f58056cfa117b47af709986b63c056740911164332c8c0029a165627a7a723058201dc8e7d880f242e491e11181fab99b6ad95ae981c547b8dc680238b621c390ef00296060604052341561000f57600080fd5b60405160208061060c8339810160405280805160008054600160a060020a03191633600160a060020a039081169190911790915590925082161515905061005557600080fd5b60028054600160a060020a031916600160a060020a03929092169190911760a060020a60ff021916905561057e8061008e6000396000f3006060604052600436106100985763ffffffff7c010000000000000000000000000000000000000000000000000000000060003504166343d726d6811461009d578063521eb273146100b25780638c52dc41146100e15780638da5cb5b146100f4578063c19d93fb14610107578063cb13cddb1461013e578063f2fde38b1461016f578063f340fa011461018e578063fa89401a146101a2575b600080fd5b34156100a857600080fd5b6100b06101c1565b005b34156100bd57600080fd5b6100c561029c565b604051600160a060020a03909116815260200160405180910390f35b34156100ec57600080fd5b6100b06102ab565b34156100ff57600080fd5b6100c561033c565b341561011257600080fd5b61011a61034b565b6040518082600281111561012a57fe5b60ff16815260200191505060405180910390f35b341561014957600080fd5b61015d600160a060020a036004351661035b565b60405190815260200160405180910390f35b341561017a57600080fd5b6100b0600160a060020a036004351661036d565b6100b0600160a060020a0360043516610408565b34156101ad57600080fd5b6100b0600160a060020a036004351661048c565b60005433600160a060020a039081169116146101dc57600080fd5b60006002805460a060020a900460ff16908111156101f657fe5b1461020057600080fd5b6002805474ff00000000000000000000000000000000000000001916740200000000000000000000000000000000000000001790557f1cdde67b72a90f19919ac732a437ac2f7a10fc128d28c2a6e525d89ce5cd9d3a60405160405180910390a1600254600160a060020a039081169030163180156108fc0290604051600060405180830381858888f19350505050151561029a57600080fd5b565b600254600160a060020a031681565b60005433600160a060020a039081169116146102c657600080fd5b60006002805460a060020a900460ff16908111156102e057fe5b146102ea57600080fd5b6002805474ff0000000000000000000000000000000000000000191660a060020a1790557f599d8e5a83cffb867d051598c4d70e805d59802d8081c1c7d6dffc5b6aca2b8960405160405180910390a1565b600054600160a060020a031681565b60025460a060020a900460ff1681565b60016020526000908152604090205481565b60005433600160a060020a0390811691161461038857600080fd5b600160a060020a038116151561039d57600080fd5b600054600160a060020a0380831691167f8be0079c531659141344cd1fd0a4f28419497f9722a3daafe3b4186f6b6457e060405160405180910390a36000805473ffffffffffffffffffffffffffffffffffffffff1916600160a060020a0392909216919091179055565b60005433600160a060020a0390811691161461042357600080fd5b60006002805460a060020a900460ff169081111561043d57fe5b1461044757600080fd5b600160a060020a038116600090815260016020526040902054610470903463ffffffff61053c16565b600160a060020a03909116600090815260016020526040902055565b600060016002805460a060020a900460ff16908111156104a857fe5b146104b257600080fd5b50600160a060020a038116600081815260016020526040808220805492905590919082156108fc0290839051600060405180830381858888f1935050505015156104fb57600080fd5b81600160a060020a03167fd7dee2702d63ad89917b6a4da9981c90c4d24f8c2bdfd64c604ecae57d8d06518260405190815260200160405180910390a25050565b60008282018381101561054b57fe5b93925050505600a165627a7a723058201d71443e8a0feb9cfa5ef36faf40047f79e2d04167ff7541c21966962a90b4d10029606060409081526003805460a060020a60ff02191690558051908101604052600981527f484f525345434f494e00000000000000000000000000000000000000000000006020820152600490805161005b9291602001906100d3565b5060408051908101604052600381527f4852430000000000000000000000000000000000000000000000000000000000602082015260059080516100a39291602001906100d3565b506006805460ff1916601217905560038054600160a060020a033316600160a060020a031990911617905561016e565b828054600181600116156101000203166002900490600052602060002090601f016020900481019282601f1061011457805160ff1916838001178555610141565b82800160010185558215610141579182015b82811115610141578251825591602001919060010190610126565b5061014d929150610151565b5090565b61016b91905b8082111561014d5760008155600101610157565b90565b610c168061017d6000396000f3006060604052600436106100e55763ffffffff7c010000000000000000000000000000000000000000000000000000000060003504166305d2035b81146100ea57806306fdde0314610111578063095ea7b31461019b57806318160ddd146101bd57806323b872dd146101e2578063313ce5671461020a57806340c10f1914610233578063661884631461025557806370a08231146102775780637d64bcb4146102965780638da5cb5b146102a957806395d89b41146102d8578063a9059cbb146102eb578063d73dd6231461030d578063dd62ed3e1461032f578063f2fde38b14610354575b600080fd5b34156100f557600080fd5b6100fd610375565b604051901515815260200160405180910390f35b341561011c57600080fd5b610124610385565b60405160208082528190810183818151815260200191508051906020019080838360005b83811015610160578082015183820152602001610148565b50505050905090810190601f16801561018d5780820380516001836020036101000a031916815260200191505b509250505060405180910390f35b34156101a657600080fd5b6100fd600160a060020a0360043516602435610423565b34156101c857600080fd5b6101d061048f565b60405190815260200160405180910390f35b34156101ed57600080fd5b6100fd600160a060020a0360043581169060243516604435610495565b341561021557600080fd5b61021d610615565b60405160ff909116815260200160405180910390f35b341561023e57600080fd5b6100fd600160a060020a036004351660243561061e565b341561026057600080fd5b6100fd600160a060020a036004351660243561072c565b341561028257600080fd5b6101d0600160a060020a0360043516610826565b34156102a157600080fd5b6100fd610841565b34156102b457600080fd5b6102bc6108cc565b604051600160a060020a03909116815260200160405180910390f35b34156102e357600080fd5b6101246108db565b34156102f657600080fd5b6100fd600160a060020a0360043516602435610946565b341561031857600080fd5b6100fd600160a060020a0360043516602435610a58565b341561033a57600080fd5b6101d0600160a060020a0360043581169060243516610afc565b341561035f57600080fd5b610373600160a060020a0360043516610b27565b005b60035460a060020a900460ff1681565b60048054600181600116156101000203166002900480601f01602080910402602001604051908101604052809291908181526020018280546001816001161561010002031660029004801561041b5780601f106103f05761010080835404028352916020019161041b565b820191906000526020600020905b8154815290600101906020018083116103fe57829003601f168201915b505050505081565b600160a060020a03338116600081815260026020908152604080832094871680845294909152808220859055909291907f8c5be1e5ebec7d5bd14f71427d1e84f3dd0314c0f7b2291e5b200ac8c7c3b9259085905190815260200160405180910390a350600192915050565b60015490565b6000600160a060020a03831615156104ac57600080fd5b600160a060020a0384166000908152602081905260409020548211156104d157600080fd5b600160a060020a038085166000908152600260209081526040808320339094168352929052205482111561050457600080fd5b600160a060020a03841660009081526020819052604090205461052d908363ffffffff610bc216565b600160a060020a038086166000908152602081905260408082209390935590851681522054610562908363ffffffff610bd416565b600160a060020a03808516600090815260208181526040808320949094558783168252600281528382203390931682529190915220546105a8908363ffffffff610bc216565b600160a060020a03808616600081815260026020908152604080832033861684529091529081902093909355908516917fddf252ad1be2c89b69c2b068fc378daa952ba7f163c4a11628f55a4df523b3ef9085905190815260200160405180910390a35060019392505050565b60065460ff1681565b60035460009033600160a060020a0390811691161461063c57600080fd5b60035460a060020a900460ff161561065357600080fd5b600154610666908363ffffffff610bd416565b600155600160a060020a038316600090815260208190526040902054610692908363ffffffff610bd416565b600160a060020a0384166000818152602081905260409081902092909255907f0f6798a560793a54c3bcfe86a93cde1e73087d944c0ea20544137d41213968859084905190815260200160405180910390a2600160a060020a03831660007fddf252ad1be2c89b69c2b068fc378daa952ba7f163c4a11628f55a4df523b3ef8460405190815260200160405180910390a350600192915050565b600160a060020a0333811660009081526002602090815260408083209386168352929052908120548083111561078957600160a060020a0333811660009081526002602090815260408083209388168352929052908120556107c0565b610799818463ffffffff610bc216565b600160a060020a033381166000908152600260209081526040808320938916835292905220555b600160a060020a0333811660008181526002602090815260408083209489168084529490915290819020547f8c5be1e5ebec7d5bd14f71427d1e84f3dd0314c0f7b2291e5b200ac8c7c3b925915190815260200160405180910390a35060019392505050565b600160a060020a031660009081526020819052604090205490565b60035460009033600160a060020a0390811691161461085f57600080fd5b60035460a060020a900460ff161561087657600080fd5b6003805474ff0000000000000000000000000000000000000000191660a060020a1790557fae5184fba832cb2b1f702aca6117b8d265eaf03ad33eb133f19dde0f5920fa0860405160405180910390a150600190565b600354600160a060020a031681565b60058054600181600116156101000203166002900480601f01602080910402602001604051908101604052809291908181526020018280546001816001161561010002031660029004801561041b5780601f106103f05761010080835404028352916020019161041b565b6000600160a060020a038316151561095d57600080fd5b600160a060020a03331660009081526020819052604090205482111561098257600080fd5b600160a060020a0333166000908152602081905260409020546109ab908363ffffffff610bc216565b600160a060020a0333811660009081526020819052604080822093909355908516815220546109e0908363ffffffff610bd416565b60008085600160a060020a0316600160a060020a031681526020019081526020016000208190555082600160a060020a031633600160a060020a03167fddf252ad1be2c89b69c2b068fc378daa952ba7f163c4a11628f55a4df523b3ef8460405190815260200160405180910390a350600192915050565b600160a060020a033381166000908152600260209081526040808320938616835292905290812054610a90908363ffffffff610bd416565b600160a060020a0333811660008181526002602090815260408083209489168084529490915290819020849055919290917f8c5be1e5ebec7d5bd14f71427d1e84f3dd0314c0f7b2291e5b200ac8c7c3b92591905190815260200160405180910390a350600192915050565b600160a060020a03918216600090815260026020908152604080832093909416825291909152205490565b60035433600160a060020a03908116911614610b4257600080fd5b600160a060020a0381161515610b5757600080fd5b600354600160a060020a0380831691167f8be0079c531659141344cd1fd0a4f28419497f9722a3daafe3b4186f6b6457e060405160405180910390a36003805473ffffffffffffffffffffffffffffffffffffffff1916600160a060020a0392909216919091179055565b600082821115610bce57fe5b50900390565b600082820183811015610be357fe5b93925050505600a165627a7a72305820170c2c3499dedfe13f7f58056cfa117b47af709986b63c056740911164332c8c0029",
  "source": "pragma solidity ^0.4.18;\r\n\r\nimport './Horsecoin.sol';\r\nimport \"zeppelin-solidity/contracts/crowdsale/CappedCrowdsale.sol\";\r\nimport \"zeppelin-solidity/contracts/crowdsale/RefundableCrowdsale.sol\";\r\nimport 'zeppelin-solidity/contracts/crowdsale/Crowdsale.sol';\r\nimport \"zeppelin-solidity/contracts/token/ERC20/MintableToken.sol\";\r\n\r\n\r\ncontract HorseCoinCrowdsale is CappedCrowdsale, RefundableCrowdsale {\r\n    // ICO Stage\r\n    // ============\r\n    enum CrowdsaleStage {PreICO, ICOWave1, ICOWave2, ICOWave3, ICOWave4}\r\n    CrowdsaleStage public stage = CrowdsaleStage.PreICO;\r\n    // =============\r\n\r\n    address wallet = 0xb8D2Adb361e3C631951b636Dd6f68C7182d2E6c6;\r\n\r\n    // Amount raised in PreICO\r\n    // -------------------------\r\n    uint256 public totalWeiInPreICO;\r\n    // -----------------------\r\n\r\n    // Events\r\n    event EthTransferred(string text);\r\n    event EthRefunded(string text);\r\n\r\n\r\n    function HorseCoinCrowdsale(uint256 _startTime, uint256 _endTime, uint256 _rate, uint256 _cap, uint256 _goal, address _wallet) public\r\n    CappedCrowdsale(_cap)\r\n    FinalizableCrowdsale()\r\n    RefundableCrowdsale(_goal)\r\n    Crowdsale(_startTime, _endTime, _rate, _wallet) {\r\n        require(_goal <= _cap);\r\n\r\n    }\r\n\r\n    // HRC Crowdsale Stages\r\n    // -----------------------\r\n\r\n    // Change Crowdsale Stage. Available Options: PreICO, ICO\r\n\r\n    function setCrowdsaleStage(uint value) public onlyOwner {\r\n\r\n        CrowdsaleStage _stage;\r\n\r\n        if (uint(CrowdsaleStage.PreICO) == value) {\r\n            _stage = CrowdsaleStage.PreICO;\r\n        } else if (uint(CrowdsaleStage.ICOWave1) == value) {\r\n            _stage = CrowdsaleStage.ICOWave1;\r\n        }\r\n\r\n        stage = _stage;\r\n\r\n        if (stage == CrowdsaleStage.PreICO) {\r\n            setCurrentRate(2);\r\n        } else if (stage == CrowdsaleStage.ICOWave1) {\r\n            setCurrentRate(1); //TODO: must be 1.5 for first wave\r\n        }\r\n    }\r\n\r\n    // Change the current rate\r\n    function setCurrentRate(uint256 _rate) private {\r\n        rate = _rate;\r\n    }\r\n\r\n    //---------------------------end stages----------------------------------\r\n\r\n    // Token Purchase\r\n    // ------------------------\r\n\r\n\r\n    // creates the token to be sold.\r\n    // override this method to have crowdsale of a specific MintableToken token.\r\n    function createTokenContract() internal returns (MintableToken) {\r\n        return new HorseCoin();\r\n    }\r\n    // Override to indicate when the crowdsale ends and does not accept any more contributions\r\n    // Checks endTime by default, plus cap from CappedCrowdsale\r\n    function hasEnded() public view returns (bool) {\r\n        return super.hasEnded();\r\n    }\r\n\r\n    // Override this method to have a way to add business logic to your crowdsale when buying\r\n    // Returns weiAmount times rate by default\r\n    function getTokenAmount(uint256 weiAmount) internal view returns (uint256) {\r\n        return super.getTokenAmount(weiAmount * 6\r\n        );\r\n    }\r\n\r\n    // Override to create custom fund forwarding mechanisms\r\n    // Forwards funds to the specified wallet by default\r\n    function forwardFunds() internal {\r\n        if (stage == CrowdsaleStage.PreICO) {\r\n            wallet.transfer(msg.value);\r\n            EthTransferred(\"forwarding funds to wallet\");\r\n        } else if (stage == CrowdsaleStage.ICOWave1) {\r\n            super.forwardFunds();\r\n            EthTransferred(\"forwarding funds to vault\");\r\n        }\r\n    }\r\n\r\n    // Criteria for accepting a purchase\r\n    // Make sure to call super.validPurchase(), or all the criteria from parents will be overwritten\r\n    function validPurchase() internal view returns (bool) {\r\n        return super.validPurchase();\r\n    }\r\n\r\n    // Override to execute any logic once the crowdsale finalizes\r\n    // Requires a call to the public finalize method, only after the sale hasEnded\r\n    function finalization() internal {\r\n        return super.finalization();\r\n    }\r\n}",
  "sourcePath": "C:\\Users\\nickm\\IdeaProjects\\Horsecoin_zeppelin\\contracts\\HorsecoinCrowdsale.sol",
  "compiler": {
    "name": "solc",
    "version": "0.4.18+commit.9cf6e910.Emscripten.clang"
  },
  "schemaVersion": "1.0.1",
  "updatedAt": "2018-01-31T20:58:26.982Z"
}